:020000040800F2
:10000000B8270020010100089B3100080B2C0008D4
:1000100085300008B5090008053C00080000000014
:10002000000000000000000000000000C5320008D1
:100030001F0A000800000000F131000851330008D9
:100040001B0100081B0100081B0100081B01000820
:100050001B0100081B0100081B0100081B01000810
:100060001B0100081B0100081B010008B90900085A
:100070001B010008C50900081B010008D109000880
:10008000DD090008E9090008A10700081B010008B4
:100090001B0100081B0100081B0100081B010008D0
:1000A0001B0100081B0100081B0100081B010008C0
:1000B0008D340008993400081B0100081B0100085A
:1000C0001B0100081B0100081B0100081B010008A0
:1000D0001B010008113B0008493B0008813B000858
:1000E0001B0100081B0100081B010008DFF80CD0F1
:1000F00000F044FB004800471D460008B8270020D8
:100100000648804706480047FEE7FEE7FEE7FEE7B1
:10011000FEE7FEE7FEE7FEE7FEE7FEE7CD33000879
:10012000ED000008202A04DB203A21FA02F0002129
:10013000704721FA02F3D040C2F1200291400843F7
:1001400019467047D2B201E000F8012B491EFBD2DC
:1001500070470022F6E710B513460A4604461946D2
:10016000FFF7F0FF204610BD30B505462A460B4686
:1001700012F8010B13F8014B08B1A042F8D01CB1E2
:10018000002802D06D1CF1E7284630BD421C10F853
:10019000011B0029FBD1801A70472DE9FE4F8046D4
:1001A00081EA0300C00F0C46009021F0004123F0CB
:1001B0000045B8EB0200A94105D2404621469046D1
:1001C0001C460B46024623F00040104347D0270D43
:1001D000C7F30A00C3F30A510290401A0190402865
:1001E0006BDAC3F3130040F4801B0098924620B1F1
:1001F0000023D2EB030A63EB0B0B01985946C0F1C5
:100200004002504600F0D4F906460D465046594685
:10021000019A00F0DCF910EB08006141002487EA44
:10022000115284EAE7731A4340D0009A62B3019AEC
:10023000012A4FEA075215DC001B61EB02014FF067
:10024000004202EA0752CDE90042001C41F580114C
:1002500032462B4600F013FA03B0BDE8F08F40465B
:100260002146F9E7001B61EB0201001C41F58013F8
:1002700000185B412018A2F5001747EB030140EA84
:10028000D570B6196D4111E06D084FEA360645EAA2
:10029000C0754FEA0752001B61EB0201001C41F5DB
:1002A000801149084FEA30000019514132462B466F
:1002B00003B0BDE8F04F00F0D3B900980122400030
:1002C0000023D0EB020263EBE073009821464FEA73
:1002D000E074B8EB000061EB0401E9E783F0004350
:1002E0005BE781F0004158E72DE9FE4F81EA030406
:1002F00004F0004421F0004100944FF0000B23F083
:10030000004350EA01045ED052EA03045BD0C3F319
:100310000A54C1F30A552C44A4F2F3340194A0FB0F
:100320000254C1F3130141F48011C3F3130343F4E6
:10033000801301FB024400FB034E840A970A44EA3F
:10034000815447EA8357A4FB076802958D0A05FB91
:1003500007854FEA932C04FB0C542705029D4FEAB6
:10036000065847EA1637B5EB08056EEB070C870E03
:10037000920E47EA811742EA8312A7FB0201B6EB0D
:100380000B0164EB00042B0D43EA0C335E1844EBC5
:100390001C50DA465146E7FB0201C5F313044FEA4D
:1003A0000B3343EA14534FEA0432019C43EA060339
:1003B000A4F10C040294009CCDE900B400F05FF9B4
:1003C00003B0BDE8F08F00200146F9E72DE9F04DBC
:1003D00081EA030404F0004B21F0004514464FF07D
:1003E000000A23F0004150EA050220D054EA01023D
:1003F0001DD0C5F30A570246C5F31303C1F313001A
:10040000C1F30A5640F4801543F48013A7EB0608A5
:10041000101BD64608F2FD3873EB050002D308F135
:10042000010801E092185B41B8F1000F03DA0020E7
:100430000146BDE8F08D00204FF480110646844649
:100440000EE0171B73EB050705D3121B63EB0503C7
:1004500006434CEA010C49084FEA300092185B4110
:1004600050EA0107EDD152EA030012D082EA0400FB
:1004700083EA0501084305D0101BAB4106D20122D7
:10048000002306E000224FF0004302E06FF001027B
:1004900053101AEB06004CEB085110EB0A0041EB2D
:1004A0000B01BDE8F04D00F0DBB80EB540F2334172
:1004B00002910021CDE900110A460B4600F0DFF859
:1004C00003B000BD00F0004230F000400AD0C10D82
:1004D00001F56071C0F3160042EA0151C2084007FD
:1004E0001143704700200146704701F0004330B4CB
:1004F00021F0004150EA010206D00A0DA2F5607217
:10050000C1F31301002A02DC30BC00207047440F05
:1005100044EAC104C100E01830BC00EBC25000F056
:1005200068B830B50B46014600202022012409E0BE
:1005300021FA02F59D4205D303FA02F5491B04FA9C
:1005400002F52844151EA2F10102F1DC30BD2DE9AF
:10055000F05F0546002092469B4688460646814647
:1005600040241BE02846414647462246FFF7DAFD75
:1005700053465A46C01A914110D311461846224696
:1005800000F016F82D1A67EB01084F4622460120AD
:10059000002100F00DF817EB00094E41201EA4F1D8
:1005A0000104DFDC484631462A464346BDE8F09F59
:1005B000202A04DB203A00FA02F100207047914023
:1005C000C2F1200320FA03F3194390407047202A18
:1005D00006DBCB17203A41FA02F043EAE07306E06B
:1005E00041FA02F3D040C2F120029140084319467B
:1005F00070470029A8BF7047401C490008BF20F081
:100600000100704710B4B0FA80FC00FA0CF050EA18
:10061000010404BF10BC704749B1CCF1200421FA99
:1006200004F411FA0CF118BF012121430843A3EB94
:100630000C01CB1D4FEA00614FEA102042BF0020A1
:1006400010BC704700EBC35010440029A4BF10BC7D
:100650007047401C490008BF20F0010010BC7047E3
:1006600010B5141E73F1000408DA401C41F10001BA
:1006700092185B411A4301D120F0010010BD2DE911
:10068000F04D92469B4611B1B1FA81F202E0B0FA08
:1006900080F220329046FFF78BFF04460F4640EA77
:1006A0000A0041EA0B0153465A46084313D011464B
:1006B00053EA010019D0C8F140025046FFF732FD5D
:1006C00005460E46504659464246FFF771FF08431D
:1006D00005D0012004E020463946BDE8F08D002019
:1006E000054346EAE0762C4337430A986305E40A5B
:1006F000A0EB08000022FD0A44EA47540A3002D564
:1007000000200146E9E7010510196941DDE90845C6
:1007100000196941BDE8F04DA2E7C1F30A52C1F3E7
:10072000130140F2FF3341F480119A4202DA0020B3
:100730000146704740F233439A42A2F2334202DC50
:100740005242FFF7EFBCFFF733BF000030B5041E85
:1007500071F1000404DB4FF00044404264EB0101FE
:10076000141E73F1000405DB1C464FF00043524297
:1007700063EB0403994208BF904230BD064C074D1D
:1007800006E0E06840F0010394E807009847103461
:10079000AC42F6D3FFF7AEFC9C470008BC4700080C
:1007A000014800F090BA00003800002070B50446FF
:1007B00000688168C943C90717D1816821F0010128
:1007C000816000F0DDFE05460AE000BF00F0D8FEC3
:1007D000401B022804D920688068C043C00706D0A7
:1007E00020688068C043C007F0D0002070BDA06AB8
:1007F00040F01000A062E06A40F00100E0620120D9
:1008000070BD10B50146406A826A12F0500F05D0E3
:10081000006A026BBDE8104008461047816A41F447
:100820000071816201688968C1F3424107290CD1D6
:10083000017B51B9816A21F480718162816AC904A6
:1008400003D4816A41F00101816200F039FA10BDE0
:1008500010B5406A816A41F040018162C16A41F08D
:100860000401C16200F02EFA10BD10B5406A00F01C
:1008700028FA10BDF8B50026044600960068816885
:10088000C943C9072DD0816841F001018160164834
:1008900016490068B0FBF1F000E0401E009000280F
:1008A000FBD100F06DFE054616E000BF00F068FECB
:1008B000401B022810D920688068C043C0070BD0B5
:1008C000A06A40F01000A062E06A40F00100E0621F
:1008D00084F824600120F8BD20688068C043C00708
:1008E000E4D10020F8BD00001800002040420F00B5
:1008F0002DE9FF47224DA888FFF7D7FD214E02467C
:100900000B4600203146FFF761FD4FF033321E4B9E
:10091000FFF7EAFCFFF7E9FD0024A846B146FFF720
:10092000D1FD174F0D46064617F1080738F8140099
:10093000FFF7BBFD00224B46FFF748FD32462B4632
:10094000FFF7D2FCFFF7D1FD47F82400641C022C0E
:10095000ECDB3446B8467868FFF7B4FD06460F4630
:10096000D8F80000FFF7AEFD02460B4607A0CDE920
:100970000245CDE9006703F089F9BDE8FF87000073
:100980002000002000FEAF403333F33F6C656674F7
:100990003A20252E32662C2072696768743A202529
:1009A0002E32662C20696E736964653A20252E32DA
:1009B000660A0000FEE70000014800F0C9BB000025
:1009C00068000020014800F0C3BB00007013002045
:1009D000014800F0BDBB0000A4120020014800F057
:1009E000B7BB00002C130020014800F0B1BB000091
:1009F000E812002030B590F840500124AC40C56B9F
:100A00006C60046863604368102B036803D09960CE
:100A10000068C26030BD9A600068C16030BD704738
:100A20000EB50A4A07CA8DE8070009A003F02EF99F
:100A30006846FFF7ABFB82B269460B4802F08EF8BE
:100A40004FF47A7000F094FC0EBD0000904700084F
:100A500064697361626C65206563686F2E2E2E2E4B
:100A60002E2E0D0A000000001412002072B6FEE7C0
:100A700070B512A11348FFF777FB00281DD012A014
:100A800003F004F902F071FB0122124D54032146D8
:100A9000284600F06FFD4FF47A7000F069FC0022E8
:100AA0002146284600F066FD0BA003F0EFF8A110E8
:100AB000BDE870400348FFF74CBB70BD66697265C6
:100AC00000000000CC01002046696E645F46697238
:100AD000650A0000001001405761726E696E675F21
:100AE00053746F700A000000F8B5002504460095A5
:100AF00090F8240001280BD0012084F8240020461F
:100B0000FFF754FE2046FFF7B5FE060002D050E086
:100B10000220F8BDA06A20F4885040F00200A062D4
:100B2000022000F0CBFD25490968B1FBF0F0400040
:100B300000E0401E00900028FBD12068816841F051
:100B40000801816000F01CFD074608E000F018FD78
:100B5000C01B0A2803D920688068000715D42068C4
:100B600080680007F2D42068816841F00401816048
:100B700000F006FD074612E000F002FDC01B0A2847
:100B80000DD920688068400709D5A06A20F00200CE
:100B900040F01000A06284F824500120F8BD2068C5
:100BA00080684007E8D4A06A20F0020040F001000D
:100BB000A06284F824503046F8BD000018000020E0
:100BC00070470000F8B50024009490F824202546D2
:100BD000012A12D0012280F824204A681F23072A04
:100BE0000DD20668776B521E02EB820293409F4340
:100BF0000B6893401F43776319E00220F8BD066835
:100C00000D2A0AD2376BD21F02EB820293409F4318
:100C10000B6893401F43376309E0F76A0D3A02EB14
:100C2000820293409F430B6893401F43F7620A6818
:100C3000072306680A2A0AD3F7680A3A02EB420237
:100C400093409F438B6893401F43F76008E03769E8
:100C500002EB420293409F438B6893401F433761EE
:100C60000A68102A01D0112A20D1124B02689A4238
:100C700017D193681B0219D4936843F4000393605F
:100C80000968102912D10C490C4A0968B1FBF2F12C
:100C900001EB8101490000E0491E00910029FBD1D0
:100CA00004E0816A41F020018162012480F824502F
:100CB0002046F8BD002401401800002040420F00EB
:100CC00070477047704770B504460068066845680D
:100CD000A90625D5B10723D5A16AC90603D4A16AFF
:100CE00041F40071A1628168C1F34241072910D12A
:100CF000217B71B9416821F020014160A06A20F494
:100D00008070A062A06AC00403D4A06A40F0010011
:100D1000A0622046FFF7D4FF21686FF01200086040
:100D200028062ED570072CD5A06AC00603D4A06A69
:100D300040F40050A06220688168C1F302310729A5
:100D400009D04168490515D48168C1F3424107299A
:100D500010D1217B71B9416821F080014160A06A06
:100D600020F48050A062A06AC00503D4A06A40F0BD
:100D70000100A0622046FFF723FF21686FF00C00FE
:100D8000086068060CD5F0070AD0A06A40F48030ED
:100D9000A062204600F094F821686FF0010008601E
:100DA00070BD00002DE9F0414FF0000704003D4602
:100DB0007ED0A06A002628B9E66284F82460204626
:100DC00000F080F82046FFF7F1FCA16AC90600D4C4
:100DD00020B1A06A40F01000A06269E0A16A21F48D
:100DE000885141F00201A1626268E169237B0A43F4
:100DF00047EA43010A43A1684FF48077B94209D01A
:100E0000012907D05FF0000194F814C0BCF1010F74
:100E100002D00AE03946F7E7F3B1A36A43F02003B2
:100E2000A362E36A43F00103E3622368D3F804C0DA
:100E30002CF4694C4CEA010CC3F804C021688B689F
:100E4000DFF870C003EA0C0313438B60A168B9425A
:100E50000BD0012909D00CE0DFF85CC0A3690CEBD2
:100E600043330B4343F40061DFE7218A0D05A5F509
:100E700080152168CB6A23F470032B43CB62216871
:100E800089680E4B1940914208D1E662A16A21F0AF
:100E9000020141F00101A162BDE8F081A06A20F0E9
:100EA000020040F01000A062E06A40F00100E06241
:100EB0000120F1E7FDF7E1FF00E0FFFFFE0E1FFF5D
:100EC0007047000070B586B0002506460095019574
:100ED0000295039500681E49884236D11D498869EC
:100EE00040F400708861886900F40070049088699B
:100EF00040F0040088618869694600F004000490AD
:100F0000C020009003200190134800F043FA144CD5
:100F10001248C4E900058020C4E902504000206165
:100F2000800060612020C4E90605204600F0BAF97F
:100F300008B1FFF79BFD3462002211461220666261
:100F400000F08AFB122000F079FB06B070BD0000B3
:100F50000024014000100240000801400800024047
:100F6000680000202DE9F047894604463B490068A7
:100F70003B4F0E1D9046884201D0B84207D13068E1
:100F800010F4702F03D001252846BDE8F08794F8AF
:100F9000240001280CD0012084F824002046FFF70B
:100FA00069FC05004FF0000004D084F82400EBE752
:100FB0000220EAE7A16A40F60162914341F48071A0
:100FC000A1622168B94218D1326812F4702F14D08E
:100FD000A16A41F48011A1623168490505D5A16A71
:100FE00021F4005141F48051A162A16AC9040AD5DB
:100FF000E16A21F00601E16206E0A26A22F48012B1
:10100000A2624968E9E7E06284F82400216A154891
:101010008862216A1448C862216A144808632168FA
:101020006FF0020008602068816841F4807181607F
:10103000216843464A464C31206A00F061F9206835
:101040008168C1F342410729816803D041F48011CE
:10105000816099E741F4A001FAE700000024014013
:1010600000280140030800086B0800085108000828
:1010700010B590F821100022022905D004218163C7
:1010800080F82020012010BD01680B6823F00E03BA
:101090000B6001680B6823F001030B6090F840308F
:1010A000C46B012101FA03F3636080F8211080F81A
:1010B0002020104610BD000010B590F8211000242B
:1010C000022903D00421816301243DE001680A68FC
:1010D00022F00E020A6001680A6822F001020A602A
:1010E0001A4A0168914201D1012121E0174A1432C4
:1010F000914201D110211BE0144A2832914201D1C2
:10110000891515E0114A3C32914201D189140FE052
:101110000E4A5032914202D14FF4803108E00B4A1E
:101120006432914202D14FF4801101E04FF080719E
:10113000064A083A5160012180F82110002180F808
:101140002010416B01B18847204610BD08000240C5
:101150002DE9F05FC16B0C6801680B68D0F840C0E6
:10116000042202FA0CF2494DDFF824A1494E4A4FFD
:10117000DFF828B1DFF828E122422CD05A072AD51F
:101180000A68920603D40A6822F004020A60016821
:10119000A94201D1042219E0514501D1402215E0B4
:1011A000B14202D14FF4806210E0B94202D14FF453
:1011B00080420BE0594502D14FF4802206E0714590
:1011C00002D14FF4800201E04FF080622F490839CC
:1011D0004A60C16A3BE04FF0020808FA0CF818EACE
:1011E000040F4FF000094FF0010235D05FEA837819
:1011F00032D50B689B0605D40B6823F00A030B60FD
:1012000080F821200168A94201D1022219E051454C
:1012100001D1202215E0B14202D14FF4007210E05A
:10122000B94202D14FF400520BE0594502D14FF4BC
:10123000003206E0714502D14FF4001201E04FF098
:101240000072124908394A6080F82090816A0029AA
:101250001AD0BDE8F05F0847082505FA0CF52542CD
:1012600012D01B0710D50B6823F00E030B6090F80B
:101270004010C36B02FA01F15960826380F82120AB
:1012800080F82090016BE2E7BDE8F09F0800024083
:101290001C0002403000024044000240580002405E
:1012A0006C00024030B528B308C813491422194411
:1012B000B1FBF2F18900C1631049816302214177DA
:1012C0001A6843F6F0718A43D0E900142143D0E94B
:1012D00002452C4321430469214344692143846925
:1012E00021431143196000214163012242770177B4
:1012F000084630BD012030BDF8FFFDBF00000240B0
:1013000070B5044690F82000002501280CD001207B
:1013100084F8200094F821600020012E06D084F883
:1013200020000225284670BD022070BD022684F8E8
:101330002160A0632068066826F00106066020464A
:10134000FFF758FBE06A00282068016802D041F0EE
:101350000E0106E021F0040101602068016841F0FF
:101360000A0101602068016841F001010160D9E7CC
:1013700070B5044600F004F90546601C02D004482C
:101380000078044400F0FCF8401BA042FAD370BD82
:101390000C0000202DE9F84FDFF8B8910024A9F1E6
:1013A000040B23460F2709F1040AABF1040EC9E030
:1013B0000125A5402A40AA427DD1674ED1F804C03C
:1013C000ACEB0608B44532D014DCBCF1030F3AD0C4
:1013D00009DCBCF1000F2AD0BCF1010F1CD0BCF11C
:1013E000020F31D11DE0BCF1110F17D0BCF1120F6B
:1013F0002AD119E0B8F5881F19D006DCB8F5803F6E
:1014000015D0B8F5801F1FD111E0B8F5001F0ED020
:10141000B8F5041F18D10AE0CB6815E0CB681B1D96
:1014200012E0CB6808330FE0CB680C330CE08B681C
:101430002BB1012B4FF0080303D0456104E00423D6
:1014400002E0056100E00023FF2A01D8064601E022
:1014500000F104064FEA840501D9A5F12005D6F86C
:10146000008007FA05FC28EA0C0803FA05F548EAAB
:101470000508C6F800804D68ED0062D5374DAE69AD
:1014800046F00106AE61AD6924F0030605F00105E2
:101490000095334D06EB050CDCF80850A607360F17
:1014A00007FA06F825EA0805DFF8B880404503D1B9
:1014B0004FF0000817E044E0DFF8AC80404502D16F
:1014C0004FF001080FE0DFF8A480404502D14FF053
:1014D000020808E0DFF89880404502D14FF0030889
:1014E00001E04FF0040808FA06F848EA0508CCF8CD
:1014F00008804D68D9F80060ED024D4601D51643CD
:1015000000E096432E604D68DAF80060AD02554663
:1015100001D5164300E096432E604D68DBF800606D
:10152000AD035D4601D5164300E096432E604D683D
:10153000DEF80060ED03754601D5164300E09643E2
:101540002E60641C0D682A46E5407FF431AFBDE88B
:10155000F88F000008040140000011100010024044
:101560000000014000080140000C01400010014053
:10157000001401400AB1016170470904FBE7000053
:1015800001488068704700000C0000200248816814
:1015900002781144816070470C000020074810B5A4
:1015A000016841F010010160032000F075F801208E
:1015B00000F006F800F024F8002010BD00200240E2
:1015C00070B50D4D04464FF47A712878B1FBF0F0F8
:1015D0000A490968B1FBF0F000F0A4FB48B9102CEF
:1015E00007D200222146501E00F036F800206C6021
:1015F00070BD012070BD00000C000020180000200C
:101600000C4808B5816941F001018161816901F0EF
:1016100001010091C16941F08051C161C06900F0D0
:10162000805000900448416821F0E06141F0007171
:10163000416008BD0010024000000140002809DBA5
:1016400000F01F02012191404009800000F1E020DC
:10165000C0F8001170470000F0B40E4B1B680C4638
:10166000C3F30223C3F10705042D00D90425191D76
:10167000072901D2002300E0DB1E012606FA05F14E
:10168000491E214099409E40761E16403143F0BCD1
:1016900002F020BB0CED00E0064900F007020868EC
:1016A0004FF6FF03184040EA0220034A1043086047
:1016B000704700000CED00E00000FA0510B501468F
:1016C0000020234C012922D0022939D010291DD114
:1016D00061682268D20119D51E48C1F38342C9034B
:1016E000805C0AD561681B4AC1F34041921E515C7F
:1016F000194AB2FBF1F1484301E0184948436168D7
:10170000490203D440000321B0FBF1F010BD226A6E
:10171000C2F30121012903D1920701D5C80310BDED
:10172000022905D1626A920702D549F6404010BDF0
:101730000329FCD121688903F9D54FF2244010BD5B
:1017400000F02AF96168C1F38131491C4900DBE7E7
:10175000001002406847000800127A0000093D00AE
:101760002DE9F84305460078354CC00754D0E069B0
:101770000026C00008D4E06940F08050E061E069D4
:10178000012600F0805000902E480168C90512D44F
:101790000168804641F480710160FFF7F1FE074661
:1017A00005E000BFFFF7ECFEC01B642823D8D8F883
:1017B0000000C005F6D5206A10F4407021D0A98839
:1017C00001F4407181421CD0206A1F49012220F49B
:1017D00040700A6000220A602062C00711D0FFF743
:1017E000CFFE074641F2883808E000BFFFF7C8FE89
:1017F000C11B414502D90320BDE8F883206A800758
:10180000F4D5206A696820F44070084320621EB154
:10181000E06920F08050E0612878800705D5606895
:10182000A96820F44040084360602878C00605D5C8
:101830006068E96820F48000084360600020DBE70E
:101840000010024000700040400442422DE9F04781
:101850000F46050061D0434E306800F00700B842E3
:1018600009D2306820F0070038433060306800F05B
:101870000700B84251D128683B4C810712D5400778
:1018800003D5606840F4E06060602878000703D505
:10189000606840F4605060606068A96820F0F00003
:1018A000084360602878C00728D06868012810D0F5
:1018B0002168022810D0890700292EDA616821F0FA
:1018C000030101436160FFF75BFE804641F2883906
:1018D0000DE021688903EFE78901EDE7FFF750FE8E
:1018E000A0EB0801494502D90320BDE8F0876068F4
:1018F000696800F00C00B0EB810FEFD1306800F0A8
:101900000700B8420BD9306820F007003843306038
:10191000306800F00700B84201D00120E5E72878E0
:10192000400705D56068E96820F4E060084360601E
:101930002878000706D56068296920F4605040EADD
:10194000C100606000F038F86168084AC1F3031113
:10195000515CC8400649086006480068FFF730FE41
:101960000020C2E700200240001002407847000833
:10197000180000201000002004480549006849684C
:10198000044AC1F30221515CC8407047180000208E
:10199000001002408847000804480549006849686B
:1019A000044AC1F3C221515CC840704718000020AE
:1019B00000100240884700080E4A51680E4801F0A6
:1019C0000C03042B11D0082B0FD10C48C1F3834317
:1019D000C903C05C0AD55168084AC1F34041921E50
:1019E000515C054A5043B0FBF1F07047044948434D
:1019F000704700000010024000127A0056470008AD
:101A000000093D002DE9F84F040070D02078C04D4A
:101A1000C00749D06868C0F38100012807D0686812
:101A2000C0F38100022809D16868C00306D5286880
:101A3000800339D560680028E7D035E06068B0F5EC
:101A4000803F0BD010B1B0F5A02F11D0286820F442
:101A500080302860286820F4802002E0286840F464
:101A600080302860606890B1FFF78AFD06460AE082
:101A7000286840F480202860F0E700BFFFF780FD71
:101A8000801B642873D828688003F7D50CE0FFF723
:101A900077FD064605E000BFFFF772FD801B642856
:101AA000F0D828688003F7D420789A4E80074FF04A
:101AB00001094FF0000839D5686810F00C0F07D005
:101AC0006868C0F38100022809D16868C00306D4A1
:101AD0002868800714D52069012808D110E0206902
:101AE000B0B1C6F80090FFF74BFD074605E00AE1EC
:101AF000FFF746FDC01B0228C4D828688007F7D529
:101B00002868616920F0F80040EAC10028600DE013
:101B1000C6F80080FFF734FD074604E0FFF730FD0C
:101B2000C01B022823D828688007F7D42078000734
:101B30002CD57948A169D9B1C0F80090FFF720FDF4
:101B4000074604E0FFF71CFDC01B02280FD8686A97
:101B50008007F7D571484FF4FA510068B0FBF1F0F7
:101B6000009000BF0098411E0091FAD20EE080E084
:101B7000C0F80080FFF704FD074604E0FFF700FD12
:101B8000C01B022875D8686A8007F7D42078400700
:101B900060D5E8690027C00008D4E86940F08050AB
:101BA000E861E869012700F0805000905C48016816
:101BB000C90513D40168834641F480710160FFF7C1
:101BC000DFFC824606E000BFFFF7DAFCA0EB0A006C
:101BD00064284ED8DBF80000C005F5D5E068012880
:101BE0000AD008B1052813D0286A20F00100286225
:101BF000286A20F0040002E0286A40F00100286210
:101C0000E06841F2883B98B1FFF7BAFC82460BE0EE
:101C1000286A40F004002862EEE700BFFFF7B0FC3E
:101C2000A0EB0A0159455AD8286A8007F6D50CE07E
:101C3000FFF7A6FC824605E0FFF7A2FCA0EB0A0135
:101C400059454CD8286A8007F6D41FB1E86920F0BE
:101C50008050E861E06988B36968C1F381010229B5
:101C600044D00228C6F8608004D0FFF789FC0446FF
:101C700038E034E0FFF784FC074604E0FFF780FC1F
:101C8000C01B02282BD828688001F7D4206AB0F541
:101C9000803F05D16868A16820F40030084368607F
:101CA000D4E908010843696821F4741108436860A5
:101CB000C6F86090FFF764FC044606E025E000BF2C
:101CC000FFF75EFC001B022809D828688001F7D5C1
:101CD0001BE000BFFFF754FC001B022802D90320C1
:101CE000BDE8F88F28688001F4D40EE00128F7D011
:101CF0006868226A00F48031914204D1616A00F47C
:101D00007010884201D00120EAE70020E8E70000D7
:101D100000100240000042428004424218000020AD
:101D20000070004010B5401EB0F1807F01D301204B
:101D300010BD4FF0E02460610F21601701F0CAFF71
:101D40000020A06107202061002010BD704770476F
:101D500070B590F83C20012A26D0012480F83C4040
:101D6000022280F83D2003685A689D6822F07006C0
:101D70000A6832435A600D4B02689A4208D0B2F1A9
:101D8000804F05D00A4B9A4202D00A4B9A4204D1A6
:101D9000496825F080031943916080F83D40002197
:101DA00080F83C10084670BD022070BD002C014038
:101DB000000400400008004010B5040003D094F86F
:101DC0003D0010B107E0012010BD002084F83C0068
:101DD000204600F01FF8022084F83D00211D2068F5
:101DE00001F060FB012084F8460084F83E0084F88E
:101DF0003F0084F8400084F8410084F8420084F8F1
:101E0000430084F8440084F8450084F83D00002035
:101E100010BD000008B5114A01681148914208D16F
:101E2000816941F400618161806900F40060009083
:101E300008BD0C4A9142FBD1C16941F00201C16168
:101E4000C069002200F00200009011461D20FFF73B
:101E500003FCBDE808401D20FFF7F0BB002C01404B
:101E6000001002400004004090F83D10012901D00C
:101E700001207047022180F83D1000680B4988421C
:101E800008D0B0F1804F05D00949884202D00949F5
:101E9000884204D1816801F00701062903D0016856
:101EA00041F001010160002070470000002C01405A
:101EB000000400400008004070B5044690F83C0063
:101EC0000025012817D0012684F83C60022084F800
:101ED0003D002068826822F0770222F47F4282600F
:101EE0000868502838D00DDC20284FD005DC90B38E
:101EF000102811D14AE0022070BD302846D0402879
:101F00000AD13BE060282FD070280DD0B0F5805F5B
:101F100003D0B0F5005F12D0012584F83D600020A9
:101F200084F83C00284670BDCB68D1E901212068C7
:101F300001F0FBFA2068816841F0770109E0CB6885
:101F4000D1E90121206801F0F0FA2068816841F4AC
:101F500080418160E1E719E0CA684968206801F0C2
:101F600099FB5021206806E0CA684968206801F0A2
:101F7000A2FB6021206801F0E2FACEE7CA68496856
:101F8000206801F087FB40212068F4E722680146C1
:101F90001046F0E77047000030B50446002551B107
:101FA00004290DD0082910D094F8410094F8452058
:101FB000012811D10EE094F83E0094F84220F7E792
:101FC00094F83F0094F84320F2E794F8400094F826
:101FD0004420EDE7012A01D0012030BD022059B193
:101FE000042912D0082919D084F8410084F845004A
:101FF0000C2938D0012534E084F83E0084F84200F2
:102000002068C26842F0020210E084F83F0084F8C1
:1020100043002068C26842F0040207E084F84000F0
:1020200084F844002068C26842F00802C2600122BD
:10203000206801F06DFA0E492068884208D0B0F19E
:10204000804F05D00B49884202D00B49884204D109
:10205000816801F00701062903D0016841F0010100
:102060000160284630BD2068C26842F01002DDE7FA
:10207000002C0140000400400008004070B50446F8
:10208000006801694FF00005C943890715D4C1688C
:10209000C943890711D4E91E016101202077206816
:1020A00080698007204602D0FFF774FF04E000F04B
:1020B000D5F8204600F08EF9257720680169C943DC
:1020C000490717D4C168C943490713D46FF0040105
:1020D0000161022020772068806910F4407F20464B
:1020E00002D0FFF757FF04E000F0B8F8204600F0F8
:1020F00071F9257720680169C943090716D4C168B9
:10210000C943090712D46FF0080101610420207748
:102110002068C0698007204602D0FFF73BFF04E03B
:1021200000F09CF8204600F055F9257720680169F9
:10213000C943C90617D4C168C943C90613D46FF08F
:1021400010010161082020772068C06910F4407FE9
:10215000204602D0FFF71EFF04E000F07FF8204683
:1021600000F038F9257720680169C943C90708D10B
:10217000C168C943C90704D1891E0161204600F026
:1021800079F920680169C943090609D4C168C943BE
:10219000090605D46FF0800101612046FFF7D6FDE6
:1021A00020680169C943490609D4C168C943490681
:1021B00005D46FF040010161204600F05CF9206811
:1021C0000169C94389060BD4C168C943890607D48C
:1021D0006FF0200101612046BDE87040FFF7B7BDF8
:1021E00070BD000000B585B0002100910191029101
:1021F0000391026815480221B2F1804F16D0144BAA
:102200009A4211D1826942F0080282618069039189
:1022100000F0080004904FF44070CDE900010D4833
:10222000694600BFFFF7B6F805B000BD826942F00D
:10223000040282618069039100F00400049003208D
:10224000CDE9000169460448ECE7000000100240B7
:1022500000080040000C014000080140704770B5C4
:10226000044690F83C0000260D4601280FD00120BE
:1022700084F83C006AB1042A1DD0082A2FD00C2A09
:102280003FD00126002084F83C00304670BD02207B
:1022900070BD206801F05CF92068816941F0080197
:1022A00081612068816921F0040181612068816970
:1022B0002A69114311E0206801F072F920688169F0
:1022C00041F4006181612068816921F4806181614C
:1022D000206881692A6941EA02218161D2E7206888
:1022E00001F08AF92068C16941F00801C1612068E4
:1022F000C16921F00401C1612068C1692A691143E3
:1023000011E0206801F0A4F92068C16941F400617E
:10231000C1612068C16921F48061C1612068C1691F
:102320002A6941EA0221C161ACE710B5040003D07B
:1023300094F83D0010B107E0012010BD002084F8A2
:102340003C00204600F01EF8022084F83D00211DCC
:10235000206801F0A7F8012084F8460084F83E00C8
:1023600084F83F0084F8400084F8410084F842007B
:1023700084F8430084F8440084F8450084F83D0064
:10238000002010BD08B501681048B1F1804F0BD096
:102390000F4A914207D1C16941F00401C161C0698E
:1023A00000F00400009008BDC16941F00101C16165
:1023B000C069002200F00100009011461C20FFF7C8
:1023C0004BF9BDE808401C20FFF738B90010024067
:1023D000000800407047000010B50446022249B1D1
:1023E00004290ED0082913D094F84100012816D0F2
:1023F000012010BD94F83E000128F9D184F83E2058
:102400000FE094F83F000128F2D184F83F2008E063
:1024100094F840000128EBD184F8402001E084F8D2
:1024200041200122206801F073F80F49206888429A
:1024300003D1426C42F4004242642068884208D0D2
:10244000B0F1804F05D00949884202D0084988423E
:1024500004D1816801F00701062903D0016841F029
:1024600001010160002010BD002C0140000400406B
:10247000000800407047704770B5044612480E4689
:102480004FF40065844209D1A0F580510FA001F0FE
:10249000FDFB2A4611490C4800F002FB0A4848306F
:1024A000844210D1A0F648010DA001F0EFFB3146A7
:1024B0000F4800F09FFE2A46BDE870400C4901F627
:1024C000480000F0EDBA70BDCC110020616C6C20AA
:1024D00064617461313A2025730D0A00CC0100203B
:1024E000616C6C2064617461323A2025730D0A00BE
:1024F000CC09002010B504460068406994F84110EA
:10250000C0F3C010212911D180B12068143050E8E7
:10251000001F21F0800140E80012002AF5D1A06BD5
:1025200008B1FEF7A5FD204601F0A3F92068406937
:1025300094F84210C0F38010222911D180B1206894
:10254000143050E8001F21F0400140E80012002A3A
:10255000F5D1E06B08B1FEF78BFD204601F062F982
:10256000002010BD70470000F8B5016804460868F7
:10257000CA684B6910F00F0F4FF0000559D003F0F7
:10258000010602F49077374365D0C10705D0D10525
:1025900003D5616C41F001016164410705D5D9079C
:1025A00003D0616C41F002016164810705D5D90750
:1025B00003D0616C41F004016164010707D502F0AA
:1025C0002001314303D0616C41F008016164616C0A
:1025D00000293AD0800604D5900602D5204601F0A5
:1025E00056F920684069616CC0F38010090700D477
:1025F00060B3204601F016F920684069400621D5F5
:102600002068143050E8001F21F0400140E800121B
:10261000002AF5D1E06BA8B16D494163E06BFEF78C
:102620004BFD002811D0E06B416B01B0BDE8F040DC
:10263000084783060FD593060DD52046BDE8F84020
:1026400001F025B92046FFF78DFFF8BD2046FFF7C2
:1026500089FF6564F8BD266B2023012E7CD1C60658
:102660007AD5D60678D508684868009048694FF052
:102670000206400640D5E16B086840680004000C83
:10268000E8D0A28D8242E5D9E085886920282DD046
:1026900020680C3050E8001F21F4807140E80012DF
:1026A000002AF5D12068143050E8001F21F0010104
:1026B00040E80012002AF5D12068143050E8001FCD
:1026C00021F0400140E80012002AF5D184F84230A0
:1026D000256320680C3050E8001F21F0100140E80D
:1026E0000012002AF5D1E06BFEF7C2FC6663A08DF4
:1026F000E18D401A81B22AE0A08DE18D401A81B2AD
:10270000E08D0028A6D00029A4D022680C3252E81F
:10271000000F20F4907042E80007002FF5D12068E8
:10272000143050E8002F22F0010240E80027002F6B
:10273000F5D184F84230256320680C3050E8002F32
:1027400022F0100240E80023002BF5D166632046FA
:10275000FFF792FEF8BDFFE705062BD5150629D534
:1027600094F841002128F5D1A068B0F5805F01D12F
:102770002069B0B1206A411C21622168007848605C
:10278000E08C401E0004000CE084E3D12068C168A6
:1027900021F08001C1602068C16841F04001C16042
:1027A000D8E7206A0088C0F308004860206A801CCF
:1027B0002062E5E74006CDD55006CBD5CA68204655
:1027C00022F04002CA6084F8413000F01CFAC1E7F0
:1027D000DB36000870B5040004D094F841000025F1
:1027E00010B106E0012070BD84F84050204600F092
:1027F00023F8242084F841002068C16821F40051A6
:10280000C160204601F0A4F82068016921F49041DC
:1028100001612068416921F02A0141612068C16895
:1028200041F40051C1606564202084F8410084F8BF
:1028300042006563002070BD2DE9F04786B0002599
:1028400000950195029503950446DFF828C20368B8
:10285000894802210322894E80274FF480684FF473
:10286000006A634549D1836943F480438361836986
:1028700003F480430493836943F004038361806914
:10288000039200F0040004900802CDE900016946BB
:102890003046FEF77FFDCDE900856946304602955A
:1028A000FEF778FD774E7648C6E90005C6E902577F
:1028B00035617561B5613046F561FEF7F3FC08B12D
:1028C000FEF7D4F8E6630022022125207462FEF7A9
:1028D000C3FE2520FEF7B2FE3068016821F0040136
:1028E00001606848D8380068C16841F01001C160D3
:1028F0006549524601F5805066E0DFF890C14FF41B
:102900000059634565D1C36943F40033C361C369AA
:1029100003F400330493836943F004038361806903
:10292000039200F0040004900420CDE90001694600
:102930003046FEF72FFD0820CDE9000569463046F8
:102940000295FEF727FD4F4E4D484436283001C60C
:102950001020A1C64B4846F8105944307561C6E9AD
:102960000659FEF79FFC08B1FEF780F8A663746273
:10297000444E434888361430C6E90005C6E902577C
:1029800035617561B5613046F561FEF78BFC08B1C4
:10299000FEF76CF8E6630022114626207462FEF70B
:1029A0005BFE2620FEF74AFE3068016821F0040134
:1029B0000160344890380068C16841F01001C1607E
:1029C0003349524601F6480000F06AF806B0BDE807
:1029D000F087304EB342F9D1C36943F48023C36119
:1029E000C36903F480230493836943F0080383617C
:1029F0008069CDE9008100F00800CDE90320264E72
:102A000069463046FEF7C6FCCDE900A5D0466946CA
:102A100030460295FEF7BEFC1A4E1948CC362838CF
:102A2000C6E90005C6E9025735617561C6E9065970
:102A30003046FEF737FC08B1FEF718F8E6630022CF
:102A4000114627207462FEF707FE2720FEF7F6FDE9
:102A50003068016821F0040101600A4848380068C4
:102A6000C16841F01001C1600C4842460168054848
:102A70004838A9E700380140001002400008014032
:102A800058000240A4120020CC0100200044004065
:102A9000CC09002000480040000C01400400002048
:102AA00090F84230202B01D00220704721B11AB19A
:102AB0000023036300F0A8BF0120704770477047F0
:102AC0002DE9F843044690F841001F4616460D468E
:102AD000202802D00220BDE8F8837DB176B1002025
:102AE0006064212084F84100FEF74AFDA6848046F8
:102AF000E684A068B0F5805F02D003E00120EAE739
:102B0000206910B12E4600250EE000260CE0802141
:102B1000204600F0C1FFA0B9AEB116F8010B216844
:102B20004860E08C401EE084E08C43464FF0000299
:102B300000970028EBD14FF04001204600F0ACFF99
:102B400030B10320C7E735F8020BC0F30800E6E711
:102B5000202084F841000020BDE7000070B5044645
:102B600090F84100202801D0022070BD49B342B343
:102B70002162A284E28400206064212384F8413031
:102B8000A56B114BAB62A56B104BEB62A56B104BA9
:102B90002B63A36B5863256813462A1DA06BFEF7B1
:102BA000AFFB21686FF0400008602068143050E8E7
:102BB000001F41F0800140E80012002AF5D10020FA
:102BC00070BD012070BD0000D93700081B38000817
:102BD000EB36000890F84130202B01D002207047DE
:102BE00079B172B101628284C284002141642121E1
:102BF00080F841100068C16841F08001C160002088
:102C000070470120704770477047FEE7094A136814
:102C100038B101280AD0022802D1596310688163B3
:102C2000704759631168002088637047002058631B
:102C3000F4E70000F40000203EB500211C4800919C
:102C400001911A4A02910260921582600124047374
:102C5000017503254FF460220561C2614160FEF7F2
:102C6000A1F808B1FDF702FF0620CDE900040290AB
:102C700069460F48FDF7A6FF08B1FDF7F7FE0720EC
:102C800000900220019069460948FDF79BFF08B1BA
:102C9000FDF7ECFE1120CDE9000569460448FDF77B
:102CA00091FF002801D0FDF7E1FE3EBD0024014068
:102CB00038000020154808B5416941F00101416123
:102CC0004069002200F00100009011460B20FEF741
:102CD000C3FC0B20FEF7B2FC002211460D20FEF7CC
:102CE000BBFC0D20FEF7AAFC002211461020FEF7C7
:102CF000B3FC1020FEF7A2FC002211461120FEF7C3
:102D0000ABFCBDE808401120FEF798BC0010024063
:102D10002DE9F04186B000242E48009401940294DD
:102D20000394816941F010018161816901F0100112
:102D30000491816941F020018161816901F02001E4
:102D40000491816941F004018161816901F004010C
:102D50000491816941F00801816180691E4F00F092
:102D600008004FF400550490002229463846FEF72B
:102D700001FCDFF86880002220214046FEF7FAFBC4
:102D8000012240214046FEF7F5FB00950226012571
:102D90000396CDE9015469463846FEF7FBFA6220F6
:102DA000CDE90005CDE9024669464046FEF7F2FA54
:102DB0008020CDE90004694640460294FEF7EAFA15
:102DC000CDE90054694640460294FEF7E3FA06B0A6
:102DD000BDE8F0810010024000100140000C0140ED
:102DE00010B586B00024184800940194029403940E
:102DF00004941449059401604721C0E901144CF280
:102E00004F31C0E9031444618461FEF7D5FF08B176
:102E1000FDF72CFE4FF48050009069460A48FFF7FA
:102E20004BF808B1FDF722FE049404A90648059466
:102E3000FEF78EFF08B1FDF719FE0348FFF714F8FF
:102E400006B010BD002C0140AC00002010B58AB0C7
:102E5000002407941C2168460894FDF77AF920485D
:102E60004FF0804101604721C0E9011440F2E73191
:102E7000C0E903148461FFF758FA08B1FDF7F6FDC5
:102E8000079407A916480894FEF762FF08B1FDF7FA
:102E9000EDFD6020CDE9000402940022694610484F
:102EA0000494FFF7DCF908B1FDF7E0FD0422694660
:102EB0000B48FFF7D4F908B1FDF7D8FD0021084809
:102EC000FFF78AFA04210648FFF786FA0C21044826
:102ED000FFF762F80248FFF785F90AB010BD00005D
:102EE000F400002010B586B0002417480094019427
:102EF0000294039404941349059401604721C0E9A6
:102F000001144EF65F21C0E903148461FEF754FFFB
:102F100008B1FDF7ABFD4FF48050009069460A48B8
:102F2000FEF7CAFF08B1FDF7A1FD049404A9064805
:102F30000594FEF70DFF002801D0FDF797FD06B0C0
:102F400010BD0000000400403C01002010B58AB014
:102F5000002407941C2168460894FDF7FAF81E48DF
:102F60001C4901604721C0E9011440F2E731C0E982
:102F700003148461FFF7D9F908B1FDF777FD0794D1
:102F800007A915480894FEF7E3FE08B1FDF76EFDAA
:102F90006020CDE900040294082269460E4804949A
:102FA000FFF75DF908B1FDF761FD0C2269460A489B
:102FB000FFF755F908B1FDF759FD08210648FFF75D
:102FC0000BFA0C210448FFF707FA0348FFF70AF948
:102FD0000AB010BD00080040840100200C4810B564
:102FE0000A4901604FF4E1314160002181600C2207
:102FF000C160C0E904128161C161FFF7EBFB0028E9
:1030000003D0BDE81040FDF731BD10BD00380140D0
:10301000CC1100200C4810B50A4901604FF4612121
:103020004160002181600C22C160C0E9041281610D
:10303000C161FFF7CFFB002803D0BDE81040FDF7CA
:1030400015BD10BD00440040141200200C4810B5FE
:103050000A4901604FF461214160002181600C2226
:10306000C160C0E904128161C161FFF7B3FB0028B0
:1030700003D0BDE81040FDF7F9BC10BD004800408A
:103080005C120020FEE710B5044601460120FFF760
:10309000BDFD2146BDE81040012000F0FDB8000054
:1030A00070B505464FF4167415A1FDF75DF818B11B
:1030B000204600F037F81CE013A12846FDF754F82D
:1030C00018B12046FFF7DFFF13E012A12846FDF7F5
:1030D0004BF818B1204600F03DF80AE00FA1284651
:1030E000FDF742F818B1204600F028F801E000F0A2
:1030F00047F82846BDE870404FF40061FDF729B855
:10310000464F5257415244004241434B574152446B
:103110000000000052494748540000004C45465406
:103120000000000010B5044601460020FFF76EFDC8
:103130002146BDE81040002000F0AEB810B50446AE
:1031400000210846FFF762FD2146BDE8104000203F
:1031500000F0A2B800B501460020FFF757FD00219E
:1031600008465DF804EB00F097B800B50021022096
:10317000FFF74CFD002102205DF804EB00F08CB855
:1031800010B54FF47A7421460220FFF73FFD214627
:10319000BDE81040022000F07FB8FEE700B589B01E
:1031A0000AA000F073FD0DA1684600F07FFD68469F
:1031B000FCF7ECFF82B269460C48FFF7CFFC4FF4F6
:1031C000FA60FEF7D5F809B000BD00006F70656EBB
:1031D000205454542E2E2E2E0D0A000041542B53F1
:1031E0004F434B455454540D0A0000001412002064
:1031F0007047000010B5044612A000F047FD2046BD
:1032000001F0F6F912A11548FCF7AEFF002817D01F
:103210001348017801290FD001210170C8B201289B
:103220000CD010A113A000F031FDBDE810404FF408
:1032300000610A48FCF78DBF0021EEE713A1F1E71A
:1032400010BD000053697A65323A2025640D0A00EA
:103250004348414E47455F4D4F444500CC0900204F
:103260001C000020434F4E54524F4C5F4D4F44457D
:10327000000000004D6F6465206368616E676564DF
:1032800020746F3A2025730A000000005452414315
:10329000455F4D4F44450000094A136838B1012885
:1032A00008D0022802D119641068C1637047002059
:1032B0001864F9E7196411680020C86370470000BA
:1032C00084010020704700001FB50CA000F0DEFC58
:1032D0000FA30FCB8DE80F00694611A000F0D6FCBC
:1032E0006846FCF753FF82B269461048FFF736FC88
:1032F0004FF47A70FEF73CF81FBD00007365742030
:10330000776F726B6D6F64652E2E2E2E0D0A000086
:1033100041542B574D4F44453D312C300D0A000090
:10332000636D64203A25730D0A000000141200201A
:1033300010B50548FDF7D8FBBDE81040032203494E
:103340000148FDF70FBE00003800002020000020DB
:10335000FEF71CB930B593B028216846FCF7F9FE9A
:1033600014210AA8FCF7F5FE002501200F95109501
:103370001195010412958DE8230004904FF4E0109C
:10338000CDE90810022407946846FEF73BFB08B11C
:1033900072B6FEE70AA90F2081E831004FF4806081
:1033A000CDE90D0502210AA8FEF750FA08B172B660
:1033B000FEE74FF4004011900F940FA8FEF7D0F9EC
:1033C000002801D072B6FEE713B030BD7047000090
:1033D00000B5C1B00DA000F059FC11A312A216A1B6
:1033E000684600F063FC694619A000F04FFC68468F
:1033F000FCF7CCFE82B269461848FFF7AFFB4FF4EA
:103400007A70FDF7B5FF41B000BD00007463702015
:10341000636F6E6E6563742E2E2E2E0D0A000000F3
:1034200032333435000000003139322E3136382E37
:1034300033312E313130000041542B534F434B4533
:10344000543D342C222573222C222573220D0A0090
:10345000636D643A2025730A0000000014120020F6
:1034600010B5FDF7DDFA01F045F9FFF72DFF01F08A
:1034700041F900F0C9FB01F03DF9FFF7A9FF01F0A8
:1034800039F9BDE81040FFF789BE00000148FEF79A
:10349000F5BD0000F40000200148FEF7EFBD00007C
:1034A0003C010020F0B50268164B174C174D4FF049
:1034B0008047984205D0B84203D0A04201D0A8422C
:1034C00003D122F070064A683243984205D0B842D0
:1034D00003D0A04201D0A84203D122F44074CA68AC
:1034E00022434C6922F08002224302608A68C26251
:1034F0000A688262984201D1096901630121416130
:10350000F0BD0000002C0140000400400008004015
:1035100010B501F01F030121046A99408C43046235
:10352000016A9A401143016210BD10B5846842EAF5
:10353000032224F47F440A432243826010BD826840
:1035400022F070020A4342F00701816070470000D8
:1035500030B5036A026A22F001020262426884699D
:1035600024F073050C682C4323F002058B682B4371
:103570000A4DA8420BD123F00805CB6822F4407213
:103580002B434D6923F0040315438A692A434260A3
:10359000846149684163036230BD0000002C014032
:1035A00030B5026A036A23F010030362436884693A
:1035B0000D6824F4E64444EA05248D6822F02002D4
:1035C00042EA05120B4DA8420ED1CD6822F08002CE
:1035D00042EA05124D6923F4406343EA85038D698D
:1035E00022F0400243EA85034360846149688163B5
:1035F000026230BD002C014030B5036A026A22F439
:10360000807202624268C46923F4007324F0730577
:103610000C682C438D6843EA05230C4DA8420ED15B
:10362000CD6823F4006343EA05234D6922F4405238
:1036300042EA05128D6923F4806342EA0512426072
:10364000C4614968C163036230BD0000002C0140C1
:1036500030B5046A026A22F4805202624268C36989
:103660000D6823F4E64343EA05238D6824F40054EF
:1036700044EA0534064DA84204D14D6922F4804243
:1036800042EA85124260C36149680164046230BD48
:10369000002C014010B5036A046A24F0010404629E
:1036A000846924F0F00444EA021423F00A020A4375
:1036B0008461026210BD10B5036A046A24F010042C
:1036C0000462846923F0A00324F4704444EA0232C3
:1036D00043EA01118261016210BD10B5406A002108
:1036E000C185C184FEF73EFF10BD70B5446A2068F5
:1036F000406994F84110C0F3C0100025212904D17D
:1037000018B1E584204600F0B4F82068406994F8C8
:103710004210C0F38010222904D118B1E58520465B
:1037200000F080F8606C40F0100060642046FEF706
:1037300019FF70BD10B50146406A096809684FF06D
:10374000000289062ED4C28501680C3151E8003F81
:1037500023F4807341E80034002CF5D10168143162
:1037600051E8003F23F0010341E80034002CF5D17B
:103770000168143151E8003F23F0400341E8003470
:10378000002CF5D1202180F84210016B012909D1CC
:1037900001680C3151E8003F23F0100341E8003488
:1037A000002CF5D14263016B012902D0FFF786F9A5
:1037B00010BD818DFEF760FE10BD10B5406A01217D
:1037C0004163016B012902D0FFF779F910BD818DAA
:1037D0004908FEF751FE10BD10B50146406A096860
:1037E0000968890616D40021C1840168143151E8A2
:1037F000002F22F0800241E80023002BF5D1016860
:103800000C3151E8002F42F0400241E80023002B28
:10381000F5D110BDFFF7F7F910BD10B5406AFFF7FD
:10382000F3F910BD01680C3151E8002F22F49072B9
:1038300041E80023002BF5D10168143151E8002F35
:1038400022F0010241E80023002BF5D1016B012990
:1038500009D101680C3151E8002F22F0100241E833
:103860000023002BF5D1202180F8421000210163B4
:10387000704701680C3151E8002F22F0C00241E886
:103880000023002BF5D1202180F84110704708B5A6
:1038900090F84210222901D0022008BD82684FF41E
:1038A00080539A4201D1016921B1816A9A421BD0A9
:1038B0004AB10AE00268816A5268C2F308020A80CB
:1038C000816A891C08E0026972B10268526802F0DC
:1038D0007F020A70816A491C8162C18D491E0904F8
:1038E000090CC18503D01BE002685268F1E701684A
:1038F000CA6822F02002CA600168CA6822F4807295
:10390000CA6001684A6922F001024A61202180F8F8
:10391000421000214163026B012A03D0FFF7CEF869
:10392000002008BD016301680C3151E8002F22F02E
:10393000100241E80023002BF5D101680A68D20685
:1039400002D50A6849680091818DFEF795FDE7E789
:1039500070B5044600680169E26821F440511143E2
:1039600001612169A0680843616908432168CA6848
:1039700041F20C639A430243CA6020684169A2691C
:1039800021F44071114341611E492068884202D1EF
:10399000FEF702F801E0FDF7EFFF00EBC00101EBDD
:1039A0000012606864218000B2FBF0F3B3FBF1F316
:1039B0006FF018067343B2FBF0F5B2FBF0F605EBBF
:1039C0008305322303EB0515B5FBF1F5B6FBF1F6E4
:1039D00005F0F00505EB0615B2FBF0F6B2FBF0F0D2
:1039E000B0FBF1F06FF01802504306EB800003EBE0
:1039F0000010B0FBF1F0216800F00F00284488604F
:103A000070BD00000038014038B5816204468285EF
:103A1000002013466064222284F84220E56B1B4A92
:103A2000AA62E56B1A4AEA62E56B1A4A2A63E26BFC
:103A300050630A462168E06B091DFDF761FC2068B0
:103A4000016840680090206948B120680C3050E857
:103A5000001F41F4807140E80012002AF5D120686F
:103A6000143050E8001F41F0010140E80012002A24
:103A7000F5D12068143050E8001F41F0400140E8C3
:103A80000012002AF5D1002038BD000035370008AB
:103A9000BB370008EB3600082DE9F0419846174681
:103AA0000E460446069D27E0681C25D02DB1FDF783
:103AB00067FDA0EB0800A8421ED920680C3050E832
:103AC000001F21F4D07140E80012002AF5D12068CF
:103AD000143050E8001F21F0010140E80012002AD4
:103AE000F5D1202084F8410084F84200002084F8B9
:103AF00040000320BDE8F0812068006836EA00003D
:103B000004D00020B842CFD00020F3E70120F9E72D
:103B100038B50C4C20680168C9060ED501684068AC
:103B200000902046FEF7E6FCE06B00684068C0F5B8
:103B3000006081B22046FEF79FFCBDE83840014896
:103B4000FEF712BDCC11002038B50C4C206801687E
:103B5000C9060ED50168406800902046FEF7CAFCF1
:103B6000E06B00684068C0F5006081B22046FEF757
:103B700083FCBDE838400148FEF7F6BC1412002073
:103B80002DE9F041184E30680068184CC0064FF41B
:103B900000651ED53046FEF7ADFCF06B006840684E
:103BA000134BC0F5006082B21F78124E12491348C1
:103BB0001FB106602160002102E001600121266042
:103BC000197001680E48FEF7C9FF29462068FCF706
:103BD000C0FA0548FEF7C8FC2A462168BDE8F04156
:103BE0000148FEF75DBF00005C12002004000020C9
:103BF00008000020B41B0020B413002000000020A7
:103C000014120020FEE7000000B599B00DA000F0EE
:103C10003DF811A313A214A1684600F047F86946C5
:103C200016A000F033F86846FCF7B0FA82B2694695
:103C30001548FEF793FF41F27070FDF799FB19B03C
:103C400000BD00007769666920636F6E6E656374FE
:103C50002E2E2E2E0D0A0000313132323333717187
:103C600000000000786A790041542B574A41503DCA
:103C7000222573222C222573220D0A00636D643ADB
:103C80002025730A00000000141200200FB4054B19
:103C900010B503A9044A029800F0FEF810BC5DF8C4
:103CA00014FB0000D1450008340000200FB4084B7D
:103CB00010B504A902AA039800F0EEF8044602A980
:103CC000002000F080FC204610BC5DF814FB0000D2
:103CD000C74500080907090E002804DB00F1E020B1
:103CE00080F80014704700F00F0000F1E02080F829
:103CF000141D704702E008C8121F08C1002AFAD13B
:103D000070477047002001E001C1121F002AFBD15B
:103D1000704700002DE9FF5F82B00021DDE904302B
:103D2000020DDDF840B0034318D044F61050A2F263
:103D3000FF3242431514119801281FD0A5EB0B0048
:103D4000401C5FEA000A4FF000064E4FDFF8389142
:103D5000B046504615D5CAF1000413E0119801246D
:103D60004AA3012801D16FEA0B010298119AC0E918
:103D70000031C0E9024206B0BDE8F09FCBF100007F
:103D8000DFE704460021404A491842EB0450CDE9E0
:103D9000001012E0E00707D032463B464046494655
:103DA000FCF7A2FA8046894632463B461046194641
:103DB000FCF79AFA06460F466410002CEAD1DDE9BA
:103DC0000401DDE90023BAF1000F06DAFCF78CFAF2
:103DD00042464B46FCF788FA05E0FCF7F7FA424604
:103DE0004B46FCF7F3FA04460E460022284BFCF73C
:103DF000ADFC03D84FF0FF30014607E00022254B11
:103E000020463146FCF7C9F9FCF787FC102409E08D
:103E1000002C0ADB0A220023FCF799FB039B3032BB
:103E20001A55641E50EA0102F2D1641C039AC4F1CF
:103E300011031444119A012A03D0012208430DD121
:103E40000AE0084304D000204FF0110B119072E7F4
:103E5000A3EB0B056D1E0DE05B4504DD4FF000028A
:103E600005F1010504E003DA4FF00002A5F10105B8
:103E7000002AECD002981199C0E90231C0E900454E
:103E800079E70000000014400000F03F300000001F
:103E90000000F0430000E03F2DE9FF4F95B09B4646
:103EA0008946064600250FE2252877D100242746BB
:103EB000F84A0121059400E0044316F8013F203B35
:103EC00001FA03F01042F7D130782A2811D06FF0B0
:103ED0002F033078A0F13002092A16D8059A44F051
:103EE000020402EB820203EB42021044761C0590AE
:103EF000EFE759F8042B0592002A03DA504244F404
:103F00000054059044F00204761C30782E2816D117
:103F100016F8010F44F004042A280DD06FF02F0288
:103F20003078A0F13003092B09D807EB870302EBA7
:103F30004303C718761CF3E759F8047B761C3078E6
:103F40006C280FD006DC4C2817D068280DD06A28C2
:103F500014D104E0742810D07A280FD10DE044F475
:103F600000140AE044F4801401E044F44014727830
:103F7000824202D104F58014761C761C30786628C3
:103F80000BD013DC582877D009DC002875D04528E1
:103F9000F6D04628F4D047281AD19DE118E06328CE
:103FA00035D0642879D0652812D195E1702873D076
:103FB00008DC6728F1D069286FD06E280DD06F28F3
:103FC00006D1B5E073282CD0752875D0782874D028
:103FD0005A46179990476D1C75E1C4F302500228A8
:103FE00009D003280DD0D9F8001004280DD00D6099
:103FF00009F1040967E1D9F80010EA17C1E9005294
:10400000F6E7D9F800100D80F2E70D70F0E719F827
:10401000041B8DF8001000208DF80100EA460120F5
:1040200003E059F804AB4FF0FF3061074FF0000197
:1040300002D40DE008F101018846B9420FDA80454B
:10404000F8DB1AF808100029F4D108E008F10101A2
:1040500088468142FADB1AF808100029F6D1059843
:104060005B46A0EB080721463846179A00F094FA01
:10407000284400EB080507E04DE029E10DE01AF8BF
:10408000010B5A4617999047B8F10108F7D25B46E1
:1040900021463846179A13E142E00A220092C4F3FF
:1040A00002524FF0000A022A08D059F804CB032A22
:1040B0004FEAEC710AD00DE029E02AE009F107018E
:1040C00021F00702F2E802C1914609E00FFA8CFCE8
:1040D0004FEAEC71042A03D14FFA8CFC4FEAEC71E1
:1040E000002907DA0A460021DCF1000C61EB02012D
:1040F0002D2202E0220504D52B228DF80420012276
:1041000003E0E20701D02022F7E7904659E00A21B8
:1041100002E010220DE010214FF0000A00910BE0A8
:1041200010224FF0000A44F004040827009203E034
:1041300008224FF0000A0092C4F30252022A05D06E
:1041400059F804CB0021032A08D009E009F107013E
:1041500021F00702F2E802C1914605E01FFA8CFC4B
:10416000042A01D10CF0FF0C4FF00008220728D5DB
:10417000702806D0009B83F0100353EA0A0305D091
:104180000EE040228DF80420012208E05CEA0102E2
:1041900006D030228DF804208DF8050002229046CA
:1041A000009B83F0080353EA0A030AD15CEA010288
:1041B00001D1620705D530228DF804204FF00108A7
:1041C0007F1E582804D034A003900EA802900DE062
:1041D00036A0F9E753466046009AFCF7B8F98446E2
:1041E0000398825C0298401E029002705CEA010013
:1041F000F0D1029806A9081A00F1200A600702D53A
:1042000024F4803400E00127574502DDA7EB0A00C3
:1042100000E0002000EB0A01009005984144401A9C
:104220000590E00306D45B462146179A059800F0F6
:10423000B3F90544002706E001A85A46C05D179966
:1042400090476D1C7F1C4745F6DBE0030CD55B46B1
:104250002146179A059800F09FF9054404E03020A4
:104260005A46179990476D1C0099481E00900029E6
:10427000F5DC08E0029802995A460078491C029140
:10428000179990476D1CBAF10001AAF1010AF1DCFF
:1042900065E100000928010030313233343536370A
:1042A0003839616263646566000000003031323382
:1042B0003435363738394142434445460000000022
:1042C00000F058F90544761C307800287FF4ECADF6
:1042D00019B02846BDE8F08F620700D4062709F11F
:1042E000070222F0070CFCE80223E14603F0004835
:1042F0005FEA080C02D00FF2702C0DE05FEA045C5C
:1043000002D50FF2682C07E05FEAC47C02D00FF2FE
:10431000602C01E0AFF2700C4FF0FF3823F0004347
:10432000CDF850C065280CD006DC452809D04628B9
:104330001DD047283DD13DE0662818D067287ED1A2
:1043400038E00021112F01DB112000E0781CCDE9BD
:10435000000106A90EA8FFF7DDFCDDE90F010E9AAA
:1043600003910021009207F1010A04914DE04FF002
:1043700000400097CDE9011006A90EA8FFF7CAFC7E
:10438000DDE90F0203920E9B11990022DDF80CA0CB
:104390000093049211B9791C00EB010AB7EB0A00F3
:1043A00004D4C0F1FF3007F1010A0490AAEB070022
:1043B000019044E0012F00DA01270021112F01DDD7
:1043C000112000E03846CDE9000106A90EA8FFF74C
:1043D000A1FCDDE90F010E9A0391002104910092E6
:1043E000BA4621070CD40399514500DA8A46BAF13E
:1043F000010F05DD009AAAF10101515C302908D0B6
:10440000B84202DA10F1040F06DA0121CDE90110F9
:1044100015E0AAF10101E9E7002805DC049901444F
:104420000491AAEB000102E0411C514500DD8A46DF
:104430000499401A401C01904FF000400290200760
:1044400004D40198504501DBCDF8048000208DF89C
:104450004F0002980DF14F07B0F1004F25D02B20EF
:104460000E9002984FF0020800280CDA40420290A9
:104470002D200E9007E00A210298FCF752F8303107
:10448000029007F8011DB8F10001A8F10108F2DC63
:1044900002980028EFD1791E0E980870307800F04D
:1044A000200040F0450007F8020D12A8C01B00F1E3
:1044B00007081498007800B1012000EB0A01019868
:1044C00001EBE07105984144401A401E0590E0035D
:1044D00006D45B462146179A059800F05DF805441E
:1044E0001498007818B15A46179990476D1CE0034C
:1044F00024D55B462146179A059800F04DF80544EF
:104500001CE00498002807DBDDE90301884203DD95
:104510000098405C179901E0179930205A4690475F
:10452000049805F10105401C04900198401E01907B
:1045300004D12E205A46179990476D1CBAF10001FC
:10454000AAF1010ADDDC05E017F8010B5A461799BC
:1045500090476D1CB8F10001A8F10108F4DC5B463E
:104560002146179A0598ABE62D0000002B000000AD
:10457000200000002DE9F041044600251E461746A4
:10458000880404D405E039462020B0476D1C641E21
:10459000F9D52846BDE8F0812DE9F0410446002513
:1045A0001E469046C80301D5302700E02027880426
:1045B00004D505E041463846B0476D1C641EF9D568
:1045C0002846BDE8F0810A68531C0B6010707047E4
:1045D00038B504468DF800004FF0FF3301226946DC
:1045E0000248FEF76DFA204638BD0000CC110020CD
:1045F00010B5044607A1FBF7B7FD002808D006490F
:1046000001200870C1022046BDE81040FBF7A1BDA3
:1046100010BD00004F4B000030000020FCF7BEFF33
:10462000FEF798FEFEF774FBFEF744FBFEF7D6FCA0
:10463000FEF702FBFEF70AFCFEF788FCFEF752FCD1
:10464000FEF7CEFBFEF7E6FCFEF700FD002211466A
:104650000F20FDF701F80F20FCF7F0FF15A4FEF77F
:1046600067FE16A0FFF712FBFEF7FAFE4FF4FA60A2
:10467000FCF77EFE042221461248FEF7ABFA12A098
:10468000FFF704FB154C00BFFCF7F2F9207828B1C6
:10469000012808D012A0FFF7F9FAF5E71448FEF751
:1046A000FFFCE62002E0FCF723F91420FCF760FE93
:1046B000EAE70000535441525400000073746172E1
:1046C000740A00005C1200207561727433207365F7
:1046D0006E642073746172740A0000001C00002074
:1046E000556E6B6E6F776E206D6F64650A0000000B
:1046F000CC09002070B5FCF743FF044641F2883531
:10470000084E08E0307830B10020307006A0BDE8D7
:104710007040FFF7BBBAFCF733FF001BA842F1D390
:1047200005A0F4E730000020526563656976656492
:10473000204F4B0D0A00000054696D656F757420A1
:1047400077616974696E6720666F72204F4B0D0A3E
:1047500000000000010202030405060708090A0B15
:104760000C0D0E0F101001020203040506070809C4
:104770000A0B0C0D0E0F10100000000000000000CE
:1047800001020304060708090000000001020304F7
:10479000415445300D0A000000000000BC470008ED
:1047A0000000002038000000F43C0008F447000836
:1047B0003800002080270000043D0008B4130020CA
:1047C000B41B0020010000000100000010000000E8
:1047D000000000000024F4000000000000000000C1
:1047E00000000000000000000000000000000000C9
:0447F00000000000C5
:04000005080000ED02
:00000001FF
